{
	"1. 一个 Hello World 示例/HelloWorld.sol": {
		"HelloWorld": {
			"abi": [
				{
					"inputs": [],
					"stateMutability": "nonpayable",
					"type": "constructor"
				},
				{
					"anonymous": false,
					"inputs": [
						{
							"indexed": true,
							"internalType": "address",
							"name": "sender",
							"type": "address"
						},
						{
							"indexed": false,
							"internalType": "string",
							"name": "message",
							"type": "string"
						}
					],
					"name": "Log",
					"type": "event"
				},
				{
					"inputs": [],
					"name": "get",
					"outputs": [
						{
							"internalType": "string",
							"name": "greeting",
							"type": "string"
						}
					],
					"stateMutability": "view",
					"type": "function"
				},
				{
					"inputs": [],
					"name": "test",
					"outputs": [],
					"stateMutability": "nonpayable",
					"type": "function"
				}
			],
			"devdoc": {
				"kind": "dev",
				"methods": {},
				"version": 1
			},
			"evm": {
				"assembly": "    /* \"1. \\xe4\\xb8\\x80\\xe4\\xb8\\xaa Hello World \\xe7\\xa4\\xba\\xe4\\xbe\\x8b/HelloWorld.sol\":163:907  contract HelloWorld {... */\n  mstore(0x40, 0x80)\n    /* \"1. \\xe4\\xb8\\x80\\xe4\\xb8\\xaa Hello World \\xe7\\xa4\\xba\\xe4\\xbe\\x8b/HelloWorld.sol\":348:445  constructor() {... */\n  callvalue\n  dup1\n  iszero\n  tag_1\n  jumpi\n  0x00\n  dup1\n  revert\ntag_1:\n  pop\n    /* \"1. \\xe4\\xb8\\x80\\xe4\\xb8\\xaa Hello World \\xe7\\xa4\\xba\\xe4\\xbe\\x8b/HelloWorld.sol\":381:391  msg.sender */\n  caller\n    /* \"1. \\xe4\\xb8\\x80\\xe4\\xb8\\xaa Hello World \\xe7\\xa4\\xba\\xe4\\xbe\\x8b/HelloWorld.sol\":373:378  owner */\n  0x00\n  dup1\n    /* \"1. \\xe4\\xb8\\x80\\xe4\\xb8\\xaa Hello World \\xe7\\xa4\\xba\\xe4\\xbe\\x8b/HelloWorld.sol\":373:391  owner = msg.sender */\n  0x0100\n  exp\n  dup2\n  sload\n  dup2\n  0xffffffffffffffffffffffffffffffffffffffff\n  mul\n  not\n  and\n  swap1\n  dup4\n  0xffffffffffffffffffffffffffffffffffffffff\n  and\n  mul\n  or\n  swap1\n  sstore\n  pop\n    /* \"1. \\xe4\\xb8\\x80\\xe4\\xb8\\xaa Hello World \\xe7\\xa4\\xba\\xe4\\xbe\\x8b/HelloWorld.sol\":163:907  contract HelloWorld {... */\n  dataSize(sub_0)\n  dup1\n  dataOffset(sub_0)\n  0x00\n  codecopy\n  0x00\n  return\nstop\n\nsub_0: assembly {\n        /* \"1. \\xe4\\xb8\\x80\\xe4\\xb8\\xaa Hello World \\xe7\\xa4\\xba\\xe4\\xbe\\x8b/HelloWorld.sol\":163:907  contract HelloWorld {... */\n      mstore(0x40, 0x80)\n      callvalue\n      dup1\n      iszero\n      tag_1\n      jumpi\n      0x00\n      dup1\n      revert\n    tag_1:\n      pop\n      jumpi(tag_2, lt(calldatasize, 0x04))\n      shr(0xe0, calldataload(0x00))\n      dup1\n      0x6d4ce63c\n      eq\n      tag_3\n      jumpi\n      dup1\n      0xf8a8fd6d\n      eq\n      tag_4\n      jumpi\n    tag_2:\n      0x00\n      dup1\n      revert\n        /* \"1. \\xe4\\xb8\\x80\\xe4\\xb8\\xaa Hello World \\xe7\\xa4\\xba\\xe4\\xbe\\x8b/HelloWorld.sol\":687:904  function get() external view returns (string memory greeting) {... */\n    tag_3:\n      tag_5\n      tag_6\n      jump\t// in\n    tag_5:\n      mload(0x40)\n      tag_7\n      swap2\n      swap1\n      tag_8\n      jump\t// in\n    tag_7:\n      mload(0x40)\n      dup1\n      swap2\n      sub\n      swap1\n      return\n        /* \"1. \\xe4\\xb8\\x80\\xe4\\xb8\\xaa Hello World \\xe7\\xa4\\xba\\xe4\\xbe\\x8b/HelloWorld.sol\":492:625  function test() external {... */\n    tag_4:\n      tag_9\n      tag_10\n      jump\t// in\n    tag_9:\n      stop\n        /* \"1. \\xe4\\xb8\\x80\\xe4\\xb8\\xaa Hello World \\xe7\\xa4\\xba\\xe4\\xbe\\x8b/HelloWorld.sol\":687:904  function get() external view returns (string memory greeting) {... */\n    tag_6:\n        /* \"1. \\xe4\\xb8\\x80\\xe4\\xb8\\xaa Hello World \\xe7\\xa4\\xba\\xe4\\xbe\\x8b/HelloWorld.sol\":725:747  string memory greeting */\n      0x60\n        /* \"1. \\xe4\\xb8\\x80\\xe4\\xb8\\xaa Hello World \\xe7\\xa4\\xba\\xe4\\xbe\\x8b/HelloWorld.sol\":773:783  msg.sender */\n      caller\n        /* \"1. \\xe4\\xb8\\x80\\xe4\\xb8\\xaa Hello World \\xe7\\xa4\\xba\\xe4\\xbe\\x8b/HelloWorld.sol\":764:783  owner == msg.sender */\n      0xffffffffffffffffffffffffffffffffffffffff\n      and\n        /* \"1. \\xe4\\xb8\\x80\\xe4\\xb8\\xaa Hello World \\xe7\\xa4\\xba\\xe4\\xbe\\x8b/HelloWorld.sol\":764:769  owner */\n      0x00\n      dup1\n      sload\n      swap1\n      0x0100\n      exp\n      swap1\n      div\n      0xffffffffffffffffffffffffffffffffffffffff\n      and\n        /* \"1. \\xe4\\xb8\\x80\\xe4\\xb8\\xaa Hello World \\xe7\\xa4\\xba\\xe4\\xbe\\x8b/HelloWorld.sol\":764:783  owner == msg.sender */\n      0xffffffffffffffffffffffffffffffffffffffff\n      and\n      sub\n        /* \"1. \\xe4\\xb8\\x80\\xe4\\xb8\\xaa Hello World \\xe7\\xa4\\xba\\xe4\\xbe\\x8b/HelloWorld.sol\":760:897  if (owner == msg.sender) {... */\n      tag_12\n      jumpi\n        /* \"1. \\xe4\\xb8\\x80\\xe4\\xb8\\xaa Hello World \\xe7\\xa4\\xba\\xe4\\xbe\\x8b/HelloWorld.sol\":807:833  greeting = \"Hello, world!\" */\n      mload(0x40)\n      dup1\n      0x40\n      add\n      0x40\n      mstore\n      dup1\n      0x0d\n      dup2\n      mstore\n      0x20\n      add\n      0x48656c6c6f2c20776f726c642100000000000000000000000000000000000000\n      dup2\n      mstore\n      pop\n      swap1\n      pop\n        /* \"1. \\xe4\\xb8\\x80\\xe4\\xb8\\xaa Hello World \\xe7\\xa4\\xba\\xe4\\xbe\\x8b/HelloWorld.sol\":800:833  return greeting = \"Hello, world!\" */\n      jump(tag_11)\n        /* \"1. \\xe4\\xb8\\x80\\xe4\\xb8\\xaa Hello World \\xe7\\xa4\\xba\\xe4\\xbe\\x8b/HelloWorld.sol\":760:897  if (owner == msg.sender) {... */\n    tag_12:\n        /* \"1. \\xe4\\xb8\\x80\\xe4\\xb8\\xaa Hello World \\xe7\\xa4\\xba\\xe4\\xbe\\x8b/HelloWorld.sol\":687:904  function get() external view returns (string memory greeting) {... */\n    tag_11:\n      swap1\n      jump\t// out\n        /* \"1. \\xe4\\xb8\\x80\\xe4\\xb8\\xaa Hello World \\xe7\\xa4\\xba\\xe4\\xbe\\x8b/HelloWorld.sol\":492:625  function test() external {... */\n    tag_10:\n        /* \"1. \\xe4\\xb8\\x80\\xe4\\xb8\\xaa Hello World \\xe7\\xa4\\xba\\xe4\\xbe\\x8b/HelloWorld.sol\":537:547  msg.sender */\n      caller\n        /* \"1. \\xe4\\xb8\\x80\\xe4\\xb8\\xaa Hello World \\xe7\\xa4\\xba\\xe4\\xbe\\x8b/HelloWorld.sol\":533:562  Log(msg.sender, \"Hello EVM!\") */\n      0xffffffffffffffffffffffffffffffffffffffff\n      and\n      0x0738f4da267a110d810e6e89fc59e46be6de0c37b1d5cd559b267dc3688e74e0\n      mload(0x40)\n      tag_14\n      swap1\n      tag_15\n      jump\t// in\n    tag_14:\n      mload(0x40)\n      dup1\n      swap2\n      sub\n      swap1\n      log2\n        /* \"1. \\xe4\\xb8\\x80\\xe4\\xb8\\xaa Hello World \\xe7\\xa4\\xba\\xe4\\xbe\\x8b/HelloWorld.sol\":492:625  function test() external {... */\n      jump\t// out\n        /* \"#utility.yul\":7:106   */\n    tag_16:\n        /* \"#utility.yul\":59:65   */\n      0x00\n        /* \"#utility.yul\":93:98   */\n      dup2\n        /* \"#utility.yul\":87:99   */\n      mload\n        /* \"#utility.yul\":77:99   */\n      swap1\n      pop\n        /* \"#utility.yul\":7:106   */\n      swap2\n      swap1\n      pop\n      jump\t// out\n        /* \"#utility.yul\":112:281   */\n    tag_17:\n        /* \"#utility.yul\":196:207   */\n      0x00\n        /* \"#utility.yul\":230:236   */\n      dup3\n        /* \"#utility.yul\":225:228   */\n      dup3\n        /* \"#utility.yul\":218:237   */\n      mstore\n        /* \"#utility.yul\":270:274   */\n      0x20\n        /* \"#utility.yul\":265:268   */\n      dup3\n        /* \"#utility.yul\":261:275   */\n      add\n        /* \"#utility.yul\":246:275   */\n      swap1\n      pop\n        /* \"#utility.yul\":112:281   */\n      swap3\n      swap2\n      pop\n      pop\n      jump\t// out\n        /* \"#utility.yul\":287:426   */\n    tag_18:\n        /* \"#utility.yul\":376:382   */\n      dup3\n        /* \"#utility.yul\":371:374   */\n      dup2\n        /* \"#utility.yul\":366:369   */\n      dup4\n        /* \"#utility.yul\":360:383   */\n      mcopy\n        /* \"#utility.yul\":417:418   */\n      0x00\n        /* \"#utility.yul\":408:414   */\n      dup4\n        /* \"#utility.yul\":403:406   */\n      dup4\n        /* \"#utility.yul\":399:415   */\n      add\n        /* \"#utility.yul\":392:419   */\n      mstore\n        /* \"#utility.yul\":287:426   */\n      pop\n      pop\n      pop\n      jump\t// out\n        /* \"#utility.yul\":432:534   */\n    tag_19:\n        /* \"#utility.yul\":473:479   */\n      0x00\n        /* \"#utility.yul\":524:526   */\n      0x1f\n        /* \"#utility.yul\":520:527   */\n      not\n        /* \"#utility.yul\":515:517   */\n      0x1f\n        /* \"#utility.yul\":508:513   */\n      dup4\n        /* \"#utility.yul\":504:518   */\n      add\n        /* \"#utility.yul\":500:528   */\n      and\n        /* \"#utility.yul\":490:528   */\n      swap1\n      pop\n        /* \"#utility.yul\":432:534   */\n      swap2\n      swap1\n      pop\n      jump\t// out\n        /* \"#utility.yul\":540:917   */\n    tag_20:\n        /* \"#utility.yul\":628:631   */\n      0x00\n        /* \"#utility.yul\":656:695   */\n      tag_29\n        /* \"#utility.yul\":689:694   */\n      dup3\n        /* \"#utility.yul\":656:695   */\n      tag_16\n      jump\t// in\n    tag_29:\n        /* \"#utility.yul\":711:782   */\n      tag_30\n        /* \"#utility.yul\":775:781   */\n      dup2\n        /* \"#utility.yul\":770:773   */\n      dup6\n        /* \"#utility.yul\":711:782   */\n      tag_17\n      jump\t// in\n    tag_30:\n        /* \"#utility.yul\":704:782   */\n      swap4\n      pop\n        /* \"#utility.yul\":791:856   */\n      tag_31\n        /* \"#utility.yul\":849:855   */\n      dup2\n        /* \"#utility.yul\":844:847   */\n      dup6\n        /* \"#utility.yul\":837:841   */\n      0x20\n        /* \"#utility.yul\":830:835   */\n      dup7\n        /* \"#utility.yul\":826:842   */\n      add\n        /* \"#utility.yul\":791:856   */\n      tag_18\n      jump\t// in\n    tag_31:\n        /* \"#utility.yul\":881:910   */\n      tag_32\n        /* \"#utility.yul\":903:909   */\n      dup2\n        /* \"#utility.yul\":881:910   */\n      tag_19\n      jump\t// in\n    tag_32:\n        /* \"#utility.yul\":876:879   */\n      dup5\n        /* \"#utility.yul\":872:911   */\n      add\n        /* \"#utility.yul\":865:911   */\n      swap2\n      pop\n        /* \"#utility.yul\":632:917   */\n      pop\n        /* \"#utility.yul\":540:917   */\n      swap3\n      swap2\n      pop\n      pop\n      jump\t// out\n        /* \"#utility.yul\":923:1236   */\n    tag_8:\n        /* \"#utility.yul\":1036:1040   */\n      0x00\n        /* \"#utility.yul\":1074:1076   */\n      0x20\n        /* \"#utility.yul\":1063:1072   */\n      dup3\n        /* \"#utility.yul\":1059:1077   */\n      add\n        /* \"#utility.yul\":1051:1077   */\n      swap1\n      pop\n        /* \"#utility.yul\":1123:1132   */\n      dup2\n        /* \"#utility.yul\":1117:1121   */\n      dup2\n        /* \"#utility.yul\":1113:1133   */\n      sub\n        /* \"#utility.yul\":1109:1110   */\n      0x00\n        /* \"#utility.yul\":1098:1107   */\n      dup4\n        /* \"#utility.yul\":1094:1111   */\n      add\n        /* \"#utility.yul\":1087:1134   */\n      mstore\n        /* \"#utility.yul\":1151:1229   */\n      tag_34\n        /* \"#utility.yul\":1224:1228   */\n      dup2\n        /* \"#utility.yul\":1215:1221   */\n      dup5\n        /* \"#utility.yul\":1151:1229   */\n      tag_20\n      jump\t// in\n    tag_34:\n        /* \"#utility.yul\":1143:1229   */\n      swap1\n      pop\n        /* \"#utility.yul\":923:1236   */\n      swap3\n      swap2\n      pop\n      pop\n      jump\t// out\n        /* \"#utility.yul\":1242:1402   */\n    tag_21:\n        /* \"#utility.yul\":1382:1394   */\n      0x48656c6c6f2045564d2100000000000000000000000000000000000000000000\n        /* \"#utility.yul\":1378:1379   */\n      0x00\n        /* \"#utility.yul\":1370:1376   */\n      dup3\n        /* \"#utility.yul\":1366:1380   */\n      add\n        /* \"#utility.yul\":1359:1395   */\n      mstore\n        /* \"#utility.yul\":1242:1402   */\n      pop\n      jump\t// out\n        /* \"#utility.yul\":1408:1774   */\n    tag_22:\n        /* \"#utility.yul\":1550:1553   */\n      0x00\n        /* \"#utility.yul\":1571:1638   */\n      tag_37\n        /* \"#utility.yul\":1635:1637   */\n      0x0a\n        /* \"#utility.yul\":1630:1633   */\n      dup4\n        /* \"#utility.yul\":1571:1638   */\n      tag_17\n      jump\t// in\n    tag_37:\n        /* \"#utility.yul\":1564:1638   */\n      swap2\n      pop\n        /* \"#utility.yul\":1647:1740   */\n      tag_38\n        /* \"#utility.yul\":1736:1739   */\n      dup3\n        /* \"#utility.yul\":1647:1740   */\n      tag_21\n      jump\t// in\n    tag_38:\n        /* \"#utility.yul\":1765:1767   */\n      0x20\n        /* \"#utility.yul\":1760:1763   */\n      dup3\n        /* \"#utility.yul\":1756:1768   */\n      add\n        /* \"#utility.yul\":1749:1768   */\n      swap1\n      pop\n        /* \"#utility.yul\":1408:1774   */\n      swap2\n      swap1\n      pop\n      jump\t// out\n        /* \"#utility.yul\":1780:2199   */\n    tag_15:\n        /* \"#utility.yul\":1946:1950   */\n      0x00\n        /* \"#utility.yul\":1984:1986   */\n      0x20\n        /* \"#utility.yul\":1973:1982   */\n      dup3\n        /* \"#utility.yul\":1969:1987   */\n      add\n        /* \"#utility.yul\":1961:1987   */\n      swap1\n      pop\n        /* \"#utility.yul\":2033:2042   */\n      dup2\n        /* \"#utility.yul\":2027:2031   */\n      dup2\n        /* \"#utility.yul\":2023:2043   */\n      sub\n        /* \"#utility.yul\":2019:2020   */\n      0x00\n        /* \"#utility.yul\":2008:2017   */\n      dup4\n        /* \"#utility.yul\":2004:2021   */\n      add\n        /* \"#utility.yul\":1997:2044   */\n      mstore\n        /* \"#utility.yul\":2061:2192   */\n      tag_40\n        /* \"#utility.yul\":2187:2191   */\n      dup2\n        /* \"#utility.yul\":2061:2192   */\n      tag_22\n      jump\t// in\n    tag_40:\n        /* \"#utility.yul\":2053:2192   */\n      swap1\n      pop\n        /* \"#utility.yul\":1780:2199   */\n      swap2\n      swap1\n      pop\n      jump\t// out\n\n    auxdata: 0xa264697066735822122041553fba54774130f58f818b222ff01ec222ac452db89c9587a3847e10334b8e64736f6c634300081a0033\n}\n",
				"bytecode": {
					"linkReferences": {},
					"object": "6080604052348015600e575f80fd5b50335f806101000a81548173ffffffffffffffffffffffffffffffffffffffff021916908373ffffffffffffffffffffffffffffffffffffffff1602179055506102718061005b5f395ff3fe608060405234801561000f575f80fd5b5060043610610034575f3560e01c80636d4ce63c14610038578063f8a8fd6d14610056575b5f80fd5b610040610060565b60405161004d91906101b3565b60405180910390f35b61005e6100f5565b005b60603373ffffffffffffffffffffffffffffffffffffffff165f8054906101000a900473ffffffffffffffffffffffffffffffffffffffff1673ffffffffffffffffffffffffffffffffffffffff16036100f1576040518060400160405280600d81526020017f48656c6c6f2c20776f726c64210000000000000000000000000000000000000081525090506100f2565b5b90565b3373ffffffffffffffffffffffffffffffffffffffff167f0738f4da267a110d810e6e89fc59e46be6de0c37b1d5cd559b267dc3688e74e06040516101399061021d565b60405180910390a2565b5f81519050919050565b5f82825260208201905092915050565b8281835e5f83830152505050565b5f601f19601f8301169050919050565b5f61018582610143565b61018f818561014d565b935061019f81856020860161015d565b6101a88161016b565b840191505092915050565b5f6020820190508181035f8301526101cb818461017b565b905092915050565b7f48656c6c6f2045564d21000000000000000000000000000000000000000000005f82015250565b5f610207600a8361014d565b9150610212826101d3565b602082019050919050565b5f6020820190508181035f830152610234816101fb565b905091905056fea264697066735822122041553fba54774130f58f818b222ff01ec222ac452db89c9587a3847e10334b8e64736f6c634300081a0033",
					"opcodes": "PUSH1 0x80 PUSH1 0x40 MSTORE CALLVALUE DUP1 ISZERO PUSH1 0xE JUMPI PUSH0 DUP1 REVERT JUMPDEST POP CALLER PUSH0 DUP1 PUSH2 0x100 EXP DUP2 SLOAD DUP2 PUSH20 0xFFFFFFFFFFFFFFFFFFFFFFFFFFFFFFFFFFFFFFFF MUL NOT AND SWAP1 DUP4 PUSH20 0xFFFFFFFFFFFFFFFFFFFFFFFFFFFFFFFFFFFFFFFF AND MUL OR SWAP1 SSTORE POP PUSH2 0x271 DUP1 PUSH2 0x5B PUSH0 CODECOPY PUSH0 RETURN INVALID PUSH1 0x80 PUSH1 0x40 MSTORE CALLVALUE DUP1 ISZERO PUSH2 0xF JUMPI PUSH0 DUP1 REVERT JUMPDEST POP PUSH1 0x4 CALLDATASIZE LT PUSH2 0x34 JUMPI PUSH0 CALLDATALOAD PUSH1 0xE0 SHR DUP1 PUSH4 0x6D4CE63C EQ PUSH2 0x38 JUMPI DUP1 PUSH4 0xF8A8FD6D EQ PUSH2 0x56 JUMPI JUMPDEST PUSH0 DUP1 REVERT JUMPDEST PUSH2 0x40 PUSH2 0x60 JUMP JUMPDEST PUSH1 0x40 MLOAD PUSH2 0x4D SWAP2 SWAP1 PUSH2 0x1B3 JUMP JUMPDEST PUSH1 0x40 MLOAD DUP1 SWAP2 SUB SWAP1 RETURN JUMPDEST PUSH2 0x5E PUSH2 0xF5 JUMP JUMPDEST STOP JUMPDEST PUSH1 0x60 CALLER PUSH20 0xFFFFFFFFFFFFFFFFFFFFFFFFFFFFFFFFFFFFFFFF AND PUSH0 DUP1 SLOAD SWAP1 PUSH2 0x100 EXP SWAP1 DIV PUSH20 0xFFFFFFFFFFFFFFFFFFFFFFFFFFFFFFFFFFFFFFFF AND PUSH20 0xFFFFFFFFFFFFFFFFFFFFFFFFFFFFFFFFFFFFFFFF AND SUB PUSH2 0xF1 JUMPI PUSH1 0x40 MLOAD DUP1 PUSH1 0x40 ADD PUSH1 0x40 MSTORE DUP1 PUSH1 0xD DUP2 MSTORE PUSH1 0x20 ADD PUSH32 0x48656C6C6F2C20776F726C642100000000000000000000000000000000000000 DUP2 MSTORE POP SWAP1 POP PUSH2 0xF2 JUMP JUMPDEST JUMPDEST SWAP1 JUMP JUMPDEST CALLER PUSH20 0xFFFFFFFFFFFFFFFFFFFFFFFFFFFFFFFFFFFFFFFF AND PUSH32 0x738F4DA267A110D810E6E89FC59E46BE6DE0C37B1D5CD559B267DC3688E74E0 PUSH1 0x40 MLOAD PUSH2 0x139 SWAP1 PUSH2 0x21D JUMP JUMPDEST PUSH1 0x40 MLOAD DUP1 SWAP2 SUB SWAP1 LOG2 JUMP JUMPDEST PUSH0 DUP2 MLOAD SWAP1 POP SWAP2 SWAP1 POP JUMP JUMPDEST PUSH0 DUP3 DUP3 MSTORE PUSH1 0x20 DUP3 ADD SWAP1 POP SWAP3 SWAP2 POP POP JUMP JUMPDEST DUP3 DUP2 DUP4 MCOPY PUSH0 DUP4 DUP4 ADD MSTORE POP POP POP JUMP JUMPDEST PUSH0 PUSH1 0x1F NOT PUSH1 0x1F DUP4 ADD AND SWAP1 POP SWAP2 SWAP1 POP JUMP JUMPDEST PUSH0 PUSH2 0x185 DUP3 PUSH2 0x143 JUMP JUMPDEST PUSH2 0x18F DUP2 DUP6 PUSH2 0x14D JUMP JUMPDEST SWAP4 POP PUSH2 0x19F DUP2 DUP6 PUSH1 0x20 DUP7 ADD PUSH2 0x15D JUMP JUMPDEST PUSH2 0x1A8 DUP2 PUSH2 0x16B JUMP JUMPDEST DUP5 ADD SWAP2 POP POP SWAP3 SWAP2 POP POP JUMP JUMPDEST PUSH0 PUSH1 0x20 DUP3 ADD SWAP1 POP DUP2 DUP2 SUB PUSH0 DUP4 ADD MSTORE PUSH2 0x1CB DUP2 DUP5 PUSH2 0x17B JUMP JUMPDEST SWAP1 POP SWAP3 SWAP2 POP POP JUMP JUMPDEST PUSH32 0x48656C6C6F2045564D2100000000000000000000000000000000000000000000 PUSH0 DUP3 ADD MSTORE POP JUMP JUMPDEST PUSH0 PUSH2 0x207 PUSH1 0xA DUP4 PUSH2 0x14D JUMP JUMPDEST SWAP2 POP PUSH2 0x212 DUP3 PUSH2 0x1D3 JUMP JUMPDEST PUSH1 0x20 DUP3 ADD SWAP1 POP SWAP2 SWAP1 POP JUMP JUMPDEST PUSH0 PUSH1 0x20 DUP3 ADD SWAP1 POP DUP2 DUP2 SUB PUSH0 DUP4 ADD MSTORE PUSH2 0x234 DUP2 PUSH2 0x1FB JUMP JUMPDEST SWAP1 POP SWAP2 SWAP1 POP JUMP INVALID LOG2 PUSH5 0x6970667358 0x22 SLT KECCAK256 COINBASE SSTORE EXTCODEHASH 0xBA SLOAD PUSH24 0x4130F58F818B222FF01EC222AC452DB89C9587A3847E1033 0x4B DUP15 PUSH5 0x736F6C6343 STOP ADDMOD BYTE STOP CALLER "
				},
				"gasEstimates": {
					"creation": {
						"codeDepositCost": "125000",
						"executionCost": "24434",
						"totalCost": "149434"
					},
					"external": {
						"get()": "infinite",
						"test()": "2323"
					}
				},
				"methodIdentifiers": {
					"get()": "6d4ce63c",
					"test()": "f8a8fd6d"
				}
			},
			"storageLayout": {
				"storage": [
					{
						"astId": 9,
						"contract": "1. 一个 Hello World 示例/HelloWorld.sol:HelloWorld",
						"label": "owner",
						"offset": 0,
						"slot": "0",
						"type": "t_address"
					}
				],
				"types": {
					"t_address": {
						"encoding": "inplace",
						"label": "address",
						"numberOfBytes": "20"
					}
				}
			},
			"userdoc": {
				"kind": "user",
				"methods": {},
				"version": 1
			}
		}
	}
}